{
  "contractName": "Dex",
  "abi": [
    {
      "anonymous": false,
      "inputs": [
        {
          "indexed": true,
          "internalType": "address",
          "name": "previousOwner",
          "type": "address"
        },
        {
          "indexed": true,
          "internalType": "address",
          "name": "newOwner",
          "type": "address"
        }
      ],
      "name": "OwnershipTransferred",
      "type": "event"
    },
    {
      "inputs": [
        {
          "internalType": "bytes32",
          "name": "_ticker",
          "type": "bytes32"
        },
        {
          "internalType": "address",
          "name": "_tickerAddress",
          "type": "address"
        }
      ],
      "name": "addToken",
      "outputs": [],
      "stateMutability": "nonpayable",
      "type": "function"
    },
    {
      "inputs": [
        {
          "internalType": "address",
          "name": "",
          "type": "address"
        },
        {
          "internalType": "bytes32",
          "name": "",
          "type": "bytes32"
        }
      ],
      "name": "balances",
      "outputs": [
        {
          "internalType": "uint256",
          "name": "",
          "type": "uint256"
        }
      ],
      "stateMutability": "view",
      "type": "function"
    },
    {
      "inputs": [
        {
          "internalType": "uint256",
          "name": "_amount",
          "type": "uint256"
        },
        {
          "internalType": "bytes32",
          "name": "_ticker",
          "type": "bytes32"
        }
      ],
      "name": "deposit",
      "outputs": [],
      "stateMutability": "nonpayable",
      "type": "function"
    },
    {
      "inputs": [],
      "name": "depositETH",
      "outputs": [],
      "stateMutability": "payable",
      "type": "function"
    },
    {
      "inputs": [
        {
          "internalType": "bytes32",
          "name": "",
          "type": "bytes32"
        },
        {
          "internalType": "uint256",
          "name": "",
          "type": "uint256"
        },
        {
          "internalType": "uint256",
          "name": "",
          "type": "uint256"
        }
      ],
      "name": "marketOrderBook",
      "outputs": [
        {
          "internalType": "uint256",
          "name": "id",
          "type": "uint256"
        },
        {
          "internalType": "address",
          "name": "trader",
          "type": "address"
        },
        {
          "internalType": "enum Dex.Side",
          "name": "side",
          "type": "uint8"
        },
        {
          "internalType": "bytes32",
          "name": "ticker",
          "type": "bytes32"
        },
        {
          "internalType": "uint256",
          "name": "amount",
          "type": "uint256"
        },
        {
          "internalType": "bool",
          "name": "filled",
          "type": "bool"
        }
      ],
      "stateMutability": "view",
      "type": "function"
    },
    {
      "inputs": [
        {
          "internalType": "bytes32",
          "name": "",
          "type": "bytes32"
        },
        {
          "internalType": "uint256",
          "name": "",
          "type": "uint256"
        },
        {
          "internalType": "uint256",
          "name": "",
          "type": "uint256"
        }
      ],
      "name": "orderBook",
      "outputs": [
        {
          "internalType": "uint256",
          "name": "id",
          "type": "uint256"
        },
        {
          "internalType": "address",
          "name": "trader",
          "type": "address"
        },
        {
          "internalType": "enum Dex.Side",
          "name": "side",
          "type": "uint8"
        },
        {
          "internalType": "bytes32",
          "name": "ticker",
          "type": "bytes32"
        },
        {
          "internalType": "uint256",
          "name": "amount",
          "type": "uint256"
        },
        {
          "internalType": "uint256",
          "name": "price",
          "type": "uint256"
        },
        {
          "internalType": "bool",
          "name": "filled",
          "type": "bool"
        }
      ],
      "stateMutability": "view",
      "type": "function"
    },
    {
      "inputs": [],
      "name": "owner",
      "outputs": [
        {
          "internalType": "address",
          "name": "",
          "type": "address"
        }
      ],
      "stateMutability": "view",
      "type": "function"
    },
    {
      "inputs": [],
      "name": "renounceOwnership",
      "outputs": [],
      "stateMutability": "nonpayable",
      "type": "function"
    },
    {
      "inputs": [
        {
          "internalType": "uint256",
          "name": "",
          "type": "uint256"
        }
      ],
      "name": "tickerList",
      "outputs": [
        {
          "internalType": "bytes32",
          "name": "",
          "type": "bytes32"
        }
      ],
      "stateMutability": "view",
      "type": "function"
    },
    {
      "inputs": [
        {
          "internalType": "bytes32",
          "name": "",
          "type": "bytes32"
        }
      ],
      "name": "tokenMapping",
      "outputs": [
        {
          "internalType": "bytes32",
          "name": "ticker",
          "type": "bytes32"
        },
        {
          "internalType": "address",
          "name": "tokenAddress",
          "type": "address"
        }
      ],
      "stateMutability": "view",
      "type": "function"
    },
    {
      "inputs": [
        {
          "internalType": "address",
          "name": "newOwner",
          "type": "address"
        }
      ],
      "name": "transferOwnership",
      "outputs": [],
      "stateMutability": "nonpayable",
      "type": "function"
    },
    {
      "inputs": [
        {
          "internalType": "uint256",
          "name": "_amount",
          "type": "uint256"
        },
        {
          "internalType": "bytes32",
          "name": "_ticker",
          "type": "bytes32"
        }
      ],
      "name": "withdraw",
      "outputs": [],
      "stateMutability": "nonpayable",
      "type": "function"
    },
    {
      "inputs": [
        {
          "internalType": "bytes32",
          "name": "ticker",
          "type": "bytes32"
        }
      ],
      "name": "getBalance",
      "outputs": [
        {
          "internalType": "uint256",
          "name": "",
          "type": "uint256"
        }
      ],
      "stateMutability": "view",
      "type": "function"
    },
    {
      "inputs": [
        {
          "internalType": "bytes32",
          "name": "_ticker",
          "type": "bytes32"
        },
        {
          "internalType": "enum Dex.Side",
          "name": "side",
          "type": "uint8"
        }
      ],
      "name": "getOrderBook",
      "outputs": [
        {
          "components": [
            {
              "internalType": "uint256",
              "name": "id",
              "type": "uint256"
            },
            {
              "internalType": "address",
              "name": "trader",
              "type": "address"
            },
            {
              "internalType": "enum Dex.Side",
              "name": "side",
              "type": "uint8"
            },
            {
              "internalType": "bytes32",
              "name": "ticker",
              "type": "bytes32"
            },
            {
              "internalType": "uint256",
              "name": "amount",
              "type": "uint256"
            },
            {
              "internalType": "uint256",
              "name": "price",
              "type": "uint256"
            },
            {
              "internalType": "bool",
              "name": "filled",
              "type": "bool"
            }
          ],
          "internalType": "struct Dex.Order[]",
          "name": "",
          "type": "tuple[]"
        }
      ],
      "stateMutability": "view",
      "type": "function"
    },
    {
      "inputs": [
        {
          "internalType": "bytes32",
          "name": "_ticker",
          "type": "bytes32"
        },
        {
          "internalType": "enum Dex.Side",
          "name": "side",
          "type": "uint8"
        }
      ],
      "name": "getMarketOrderBook",
      "outputs": [
        {
          "components": [
            {
              "internalType": "uint256",
              "name": "id",
              "type": "uint256"
            },
            {
              "internalType": "address",
              "name": "trader",
              "type": "address"
            },
            {
              "internalType": "enum Dex.Side",
              "name": "side",
              "type": "uint8"
            },
            {
              "internalType": "bytes32",
              "name": "ticker",
              "type": "bytes32"
            },
            {
              "internalType": "uint256",
              "name": "amount",
              "type": "uint256"
            },
            {
              "internalType": "bool",
              "name": "filled",
              "type": "bool"
            }
          ],
          "internalType": "struct Dex.marketOrder[]",
          "name": "",
          "type": "tuple[]"
        }
      ],
      "stateMutability": "view",
      "type": "function"
    },
    {
      "inputs": [
        {
          "internalType": "enum Dex.Side",
          "name": "side",
          "type": "uint8"
        },
        {
          "internalType": "bytes32",
          "name": "ticker",
          "type": "bytes32"
        },
        {
          "internalType": "uint256",
          "name": "amount",
          "type": "uint256"
        },
        {
          "internalType": "uint256",
          "name": "price",
          "type": "uint256"
        }
      ],
      "name": "createLimitOrder",
      "outputs": [],
      "stateMutability": "nonpayable",
      "type": "function"
    },
    {
      "inputs": [
        {
          "internalType": "enum Dex.Side",
          "name": "side",
          "type": "uint8"
        },
        {
          "internalType": "bytes32",
          "name": "ticker",
          "type": "bytes32"
        },
        {
          "internalType": "uint256",
          "name": "amount",
          "type": "uint256"
        }
      ],
      "name": "createMarketOrder",
      "outputs": [],
      "stateMutability": "nonpayable",
      "type": "function"
    }
  ],
  "bytecode": "0x60806040523480156200001157600080fd5b5062000032620000266200003860201b60201c565b6200004060201b60201c565b62000104565b600033905090565b60008060009054906101000a900473ffffffffffffffffffffffffffffffffffffffff169050816000806101000a81548173ffffffffffffffffffffffffffffffffffffffff021916908373ffffffffffffffffffffffffffffffffffffffff1602179055508173ffffffffffffffffffffffffffffffffffffffff168173ffffffffffffffffffffffffffffffffffffffff167f8be0079c531659141344cd1fd0a4f28419497f9722a3daafe3b4186f6b6457e060405160405180910390a35050565b61429080620001146000396000f3fe6080604052600436106100fe5760003560e01c80638e73946111610095578063ba58ea6811610064578063ba58ea6814610363578063c9630cb0146103a0578063cb3764a8146103c9578063f2fde38b14610406578063f6326fb31461042f576100fe565b80638e739461146102ab5780639776aacf146102e857806399ec2f1c14610311578063a8d2021a1461033a576100fe565b8063667cb4ba116100d1578063667cb4ba146102025780636f3b62f914610240578063715018a6146102695780638da5cb5b14610280576100fe565b80630bb431b6146101035780631f14df691461014657806337b038391461018357806359fcdbd6146101c0575b600080fd5b34801561010f57600080fd5b5061012a600480360381019061012591906132d0565b610439565b60405161013d9796959493929190613414565b60405180910390f35b34801561015257600080fd5b5061016d600480360381019061016891906134af565b6104df565b60405161017a91906134ef565b60405180910390f35b34801561018f57600080fd5b506101aa60048036038101906101a5919061352f565b610504565b6040516101b791906136e4565b60405180910390f35b3480156101cc57600080fd5b506101e760048036038101906101e291906132d0565b610664565b6040516101f996959493929190613706565b60405180910390f35b34801561020e57600080fd5b5061022960048036038101906102249190613767565b610704565b604051610237929190613794565b60405180910390f35b34801561024c57600080fd5b50610267600480360381019061026291906137bd565b610748565b005b34801561027557600080fd5b5061027e6112e0565b005b34801561028c57600080fd5b50610295611368565b6040516102a29190613824565b60405180910390f35b3480156102b757600080fd5b506102d260048036038101906102cd9190613767565b611391565b6040516102df91906134ef565b60405180910390f35b3480156102f457600080fd5b5061030f600480360381019061030a919061383f565b6113eb565b005b34801561031d57600080fd5b506103386004803603810190610333919061387f565b6115cb565b005b34801561034657600080fd5b50610361600480360381019061035c91906138d2565b611a4c565b005b34801561036f57600080fd5b5061038a6004803603810190610385919061352f565b611cbc565b6040516103979190613a4f565b60405180910390f35b3480156103ac57600080fd5b506103c760048036038101906103c291906138d2565b611e26565b005b3480156103d557600080fd5b506103f060048036038101906103eb9190613a71565b6120c7565b6040516103fd9190613a9e565b60405180910390f35b34801561041257600080fd5b5061042d60048036038101906104289190613ab9565b6120eb565b005b6104376121e3565b005b6004602052826000526040600020602052816000526040600020818154811061046157600080fd5b906000526020600020906006020160009250925050508060000154908060010160009054906101000a900473ffffffffffffffffffffffffffffffffffffffff16908060010160149054906101000a900460ff16908060020154908060030154908060040154908060050160009054906101000a900460ff16905087565b6003602052816000526040600020602052806000526040600020600091509150505481565b606060056000848152602001908152602001600020600083600181111561052e5761052d613373565b5b8152602001908152602001600020805480602002602001604051908101604052809291908181526020016000905b8282101561065857838290600052602060002090600502016040518060c0016040529081600082015481526020016001820160009054906101000a900473ffffffffffffffffffffffffffffffffffffffff1673ffffffffffffffffffffffffffffffffffffffff1673ffffffffffffffffffffffffffffffffffffffff1681526020016001820160149054906101000a900460ff16600181111561060457610603613373565b5b600181111561061657610615613373565b5b815260200160028201548152602001600382015481526020016004820160009054906101000a900460ff1615151515815250508152602001906001019061055c565b50505050905092915050565b6005602052826000526040600020602052816000526040600020818154811061068c57600080fd5b906000526020600020906005020160009250925050508060000154908060010160009054906101000a900473ffffffffffffffffffffffffffffffffffffffff16908060010160149054906101000a900460ff16908060020154908060030154908060040160009054906101000a900460ff16905086565b60026020528060005260406000206000915090508060000154908060010160009054906101000a900473ffffffffffffffffffffffffffffffffffffffff16905082565b6000600181111561075c5761075b613373565b5b84600181111561076f5761076e613373565b5b14156107f05780826107819190613b15565b6107aa7f4554480000000000000000000000000000000000000000000000000000000000611391565b10156107eb576040517f08c379a00000000000000000000000000000000000000000000000000000000081526004016107e290613bcc565b60405180910390fd5b610869565b60018081111561080357610802613373565b5b84600181111561081657610815613373565b5b1415610868578161082684611391565b1015610867576040517f08c379a000000000000000000000000000000000000000000000000000000000815260040161085e90613c38565b60405180910390fd5b5b5b60006108756006612273565b905060006004600086815260200190815260200160002060008760018111156108a1576108a0613373565b5b81526020019081526020016000209050806040518060e001604052808481526020013373ffffffffffffffffffffffffffffffffffffffff1681526020018860018111156108f2576108f1613373565b5b81526020018781526020018681526020018581526020016000151581525090806001815401808255809150506001900390600052602060002090600602016000909190919091506000820151816000015560208201518160010160006101000a81548173ffffffffffffffffffffffffffffffffffffffff021916908373ffffffffffffffffffffffffffffffffffffffff16021790555060408201518160010160146101000a81548160ff021916908360018111156109b5576109b4613373565b5b0217905550606082015181600201556080820151816003015560a0820151816004015560c08201518160050160006101000a81548160ff0219169083151502179055505050600080828054905011610a0e576000610a20565b60018280549050610a1f9190613c58565b5b905060006001811115610a3657610a35613373565b5b876001811115610a4957610a48613373565b5b1415610e7b575b6000811115610e115781600182610a679190613c58565b81548110610a7857610a77613c8c565b5b906000526020600020906006020160040154828281548110610a9d57610a9c613c8c565b5b9060005260206000209060060201600401541115610df9576000828281548110610aca57610ac9613c8c565b5b90600052602060002090600602016040518060e0016040529081600082015481526020016001820160009054906101000a900473ffffffffffffffffffffffffffffffffffffffff1673ffffffffffffffffffffffffffffffffffffffff1673ffffffffffffffffffffffffffffffffffffffff1681526020016001820160149054906101000a900460ff166001811115610b6857610b67613373565b5b6001811115610b7a57610b79613373565b5b81526020016002820154815260200160038201548152602001600482015481526020016005820160009054906101000a900460ff161515151581525050905082600183610bc79190613c58565b81548110610bd857610bd7613c8c565b5b9060005260206000209060060201838381548110610bf957610bf8613c8c565b5b9060005260206000209060060201600082015481600001556001820160009054906101000a900473ffffffffffffffffffffffffffffffffffffffff168160010160006101000a81548173ffffffffffffffffffffffffffffffffffffffff021916908373ffffffffffffffffffffffffffffffffffffffff1602179055506001820160149054906101000a900460ff168160010160146101000a81548160ff02191690836001811115610cb057610caf613373565b5b02179055506002820154816002015560038201548160030155600482015481600401556005820160009054906101000a900460ff168160050160006101000a81548160ff0219169083151502179055509050508083600184610d129190613c58565b81548110610d2357610d22613c8c565b5b90600052602060002090600602016000820151816000015560208201518160010160006101000a81548173ffffffffffffffffffffffffffffffffffffffff021916908373ffffffffffffffffffffffffffffffffffffffff16021790555060408201518160010160146101000a81548160ff02191690836001811115610dad57610dac613373565b5b0217905550606082015181600201556080820151816003015560a0820151816004015560c08201518160050160006101000a81548160ff02191690831515021790555090505050610dfe565b610e11565b8080610e0990613cbb565b915050610a50565b600060056000888152602001908152602001600020600060018152602001908152602001600020805490501115610e7657610e7582600560008981526020019081526020016000206000600181526020019081526020016000208860016000612281565b5b6112cd565b600180811115610e8e57610e8d613373565b5b876001811115610ea157610ea0613373565b5b14156112cc575b60008111156112695781600182610ebf9190613c58565b81548110610ed057610ecf613c8c565b5b906000526020600020906006020160040154828281548110610ef557610ef4613c8c565b5b9060005260206000209060060201600401541015611251576000828281548110610f2257610f21613c8c565b5b90600052602060002090600602016040518060e0016040529081600082015481526020016001820160009054906101000a900473ffffffffffffffffffffffffffffffffffffffff1673ffffffffffffffffffffffffffffffffffffffff1673ffffffffffffffffffffffffffffffffffffffff1681526020016001820160149054906101000a900460ff166001811115610fc057610fbf613373565b5b6001811115610fd257610fd1613373565b5b81526020016002820154815260200160038201548152602001600482015481526020016005820160009054906101000a900460ff16151515158152505090508260018361101f9190613c58565b815481106110305761102f613c8c565b5b906000526020600020906006020183838154811061105157611050613c8c565b5b9060005260206000209060060201600082015481600001556001820160009054906101000a900473ffffffffffffffffffffffffffffffffffffffff168160010160006101000a81548173ffffffffffffffffffffffffffffffffffffffff021916908373ffffffffffffffffffffffffffffffffffffffff1602179055506001820160149054906101000a900460ff168160010160146101000a81548160ff0219169083600181111561110857611107613373565b5b02179055506002820154816002015560038201548160030155600482015481600401556005820160009054906101000a900460ff168160050160006101000a81548160ff021916908315150217905550905050808360018461116a9190613c58565b8154811061117b5761117a613c8c565b5b90600052602060002090600602016000820151816000015560208201518160010160006101000a81548173ffffffffffffffffffffffffffffffffffffffff021916908373ffffffffffffffffffffffffffffffffffffffff16021790555060408201518160010160146101000a81548160ff0219169083600181111561120557611204613373565b5b0217905550606082015181600201556080820151816003015560a0820151816004015560c08201518160050160006101000a81548160ff02191690831515021790555090505050611256565b611269565b808061126190613cbb565b915050610ea8565b60006005600088815260200190815260200160002060008081526020019081526020016000208054905011156112cb576112ca8260056000898152602001908152602001600020600080815260200190815260200160002088600080612281565b5b5b5b6112d76006612aed565b50505050505050565b6112e8612b03565b73ffffffffffffffffffffffffffffffffffffffff16611306611368565b73ffffffffffffffffffffffffffffffffffffffff161461135c576040517f08c379a000000000000000000000000000000000000000000000000000000000815260040161135390613d31565b60405180910390fd5b6113666000612b0b565b565b60008060009054906101000a900473ffffffffffffffffffffffffffffffffffffffff16905090565b6000600360003373ffffffffffffffffffffffffffffffffffffffff1673ffffffffffffffffffffffffffffffffffffffff1681526020019081526020016000206000838152602001908152602001600020549050919050565b6113f3612b03565b73ffffffffffffffffffffffffffffffffffffffff16611411611368565b73ffffffffffffffffffffffffffffffffffffffff1614611467576040517f08c379a000000000000000000000000000000000000000000000000000000000815260040161145e90613d31565b60405180910390fd5b600073ffffffffffffffffffffffffffffffffffffffff166002600084815260200190815260200160002060010160009054906101000a900473ffffffffffffffffffffffffffffffffffffffff1673ffffffffffffffffffffffffffffffffffffffff161461150c576040517f08c379a000000000000000000000000000000000000000000000000000000000815260040161150390613d9d565b60405180910390fd5b60405180604001604052808381526020018273ffffffffffffffffffffffffffffffffffffffff16815250600260008481526020019081526020016000206000820151816000015560208201518160010160006101000a81548173ffffffffffffffffffffffffffffffffffffffff021916908373ffffffffffffffffffffffffffffffffffffffff16021790555090505060018290806001815401808255809150506001900390600052602060002001600090919091909150555050565b8260018111156115de576115dd613373565b5b6001808111156115f1576115f0613373565b5b141561180c5761160082611391565b811115611642576040517f08c379a000000000000000000000000000000000000000000000000000000000815260040161163990613e09565b60405180910390fd5b600061164e6007612273565b90506000600560008581526020019081526020016000206000600181526020019081526020016000209050600060046000868152602001908152602001600020600080815260200190815260200160002090506000818054905014156117f657816040518060c001604052808581526020013373ffffffffffffffffffffffffffffffffffffffff1681526020018860018111156116ef576116ee613373565b5b81526020018781526020018681526020016000151581525090806001815401808255809150506001900390600052602060002090600502016000909190919091506000820151816000015560208201518160010160006101000a81548173ffffffffffffffffffffffffffffffffffffffff021916908373ffffffffffffffffffffffffffffffffffffffff16021790555060408201518160010160146101000a81548160ff021916908360018111156117ac576117ab613373565b5b0217905550606082015181600201556080820151816003015560a08201518160040160006101000a81548160ff02191690831515021790555050506117f16007612aed565b611804565b6118038183878988612281565b5b505050611a47565b82600181111561181f5761181e613373565b5b6000600181111561183357611832613373565b5b1415611a465760006118456007612273565b90506000600560008581526020019081526020016000206000808152602001908152602001600020905060006004600086815260200190815260200160002060006001815260200190815260200160002090506000818054905014156119ed57816040518060c001604052808581526020013373ffffffffffffffffffffffffffffffffffffffff1681526020018860018111156118e6576118e5613373565b5b81526020018781526020018681526020016000151581525090806001815401808255809150506001900390600052602060002090600502016000909190919091506000820151816000015560208201518160010160006101000a81548173ffffffffffffffffffffffffffffffffffffffff021916908373ffffffffffffffffffffffffffffffffffffffff16021790555060408201518160010160146101000a81548160ff021916908360018111156119a3576119a2613373565b5b0217905550606082015181600201556080820151816003015560a08201518160040160006101000a81548160ff02191690831515021790555050506119e86007612aed565b611a42565b611a4160046000878152602001908152602001600020600060018152602001908152602001600020600560008881526020019081526020016000206000808152602001908152602001600020878988612281565b5b5050505b5b505050565b80600073ffffffffffffffffffffffffffffffffffffffff166002600083815260200190815260200160002060010160009054906101000a900473ffffffffffffffffffffffffffffffffffffffff1673ffffffffffffffffffffffffffffffffffffffff161415611af3576040517f08c379a0000000000000000000000000000000000000000000000000000000008152600401611aea90613e75565b60405180910390fd5b8260036000611b00612b03565b73ffffffffffffffffffffffffffffffffffffffff1673ffffffffffffffffffffffffffffffffffffffff1681526020019081526020016000206000848152602001908152602001600020541015611b8d576040517f08c379a0000000000000000000000000000000000000000000000000000000008152600401611b8490613ee1565b60405180910390fd5b8260036000611b9a612b03565b73ffffffffffffffffffffffffffffffffffffffff1673ffffffffffffffffffffffffffffffffffffffff16815260200190815260200160002060008481526020019081526020016000206000828254611bf49190613c58565b925050819055506002600083815260200190815260200160002060010160009054906101000a900473ffffffffffffffffffffffffffffffffffffffff1673ffffffffffffffffffffffffffffffffffffffff1663a9059cbb611c55612b03565b856040518363ffffffff1660e01b8152600401611c73929190613f01565b6020604051808303816000875af1158015611c92573d6000803e3d6000fd5b505050506040513d601f19601f82011682018060405250810190611cb69190613f56565b50505050565b6060600460008481526020019081526020016000206000836001811115611ce657611ce5613373565b5b8152602001908152602001600020805480602002602001604051908101604052809291908181526020016000905b82821015611e1a57838290600052602060002090600602016040518060e0016040529081600082015481526020016001820160009054906101000a900473ffffffffffffffffffffffffffffffffffffffff1673ffffffffffffffffffffffffffffffffffffffff1673ffffffffffffffffffffffffffffffffffffffff1681526020016001820160149054906101000a900460ff166001811115611dbc57611dbb613373565b5b6001811115611dce57611dcd613373565b5b81526020016002820154815260200160038201548152602001600482015481526020016005820160009054906101000a900460ff16151515158152505081526020019060010190611d14565b50505050905092915050565b80600073ffffffffffffffffffffffffffffffffffffffff166002600083815260200190815260200160002060010160009054906101000a900473ffffffffffffffffffffffffffffffffffffffff1673ffffffffffffffffffffffffffffffffffffffff161415611ecd576040517f08c379a0000000000000000000000000000000000000000000000000000000008152600401611ec490613e75565b60405180910390fd5b60006002600084815260200190815260200160002060010160009054906101000a900473ffffffffffffffffffffffffffffffffffffffff169050838173ffffffffffffffffffffffffffffffffffffffff166370a08231611f2d612b03565b6040518263ffffffff1660e01b8152600401611f499190613824565b602060405180830381865afa158015611f66573d6000803e3d6000fd5b505050506040513d601f19601f82011682018060405250810190611f8a9190613f98565b1015611fcb576040517f08c379a0000000000000000000000000000000000000000000000000000000008152600401611fc290614037565b60405180910390fd5b8360036000611fd8612b03565b73ffffffffffffffffffffffffffffffffffffffff1673ffffffffffffffffffffffffffffffffffffffff168152602001908152602001600020600085815260200190815260200160002060008282546120329190614057565b925050819055508073ffffffffffffffffffffffffffffffffffffffff166323b872dd61205d612b03565b30876040518463ffffffff1660e01b815260040161207d939291906140ad565b6020604051808303816000875af115801561209c573d6000803e3d6000fd5b505050506040513d601f19601f820116820180604052508101906120c09190613f56565b5050505050565b600181815481106120d757600080fd5b906000526020600020016000915090505481565b6120f3612b03565b73ffffffffffffffffffffffffffffffffffffffff16612111611368565b73ffffffffffffffffffffffffffffffffffffffff1614612167576040517f08c379a000000000000000000000000000000000000000000000000000000000815260040161215e90613d31565b60405180910390fd5b600073ffffffffffffffffffffffffffffffffffffffff168173ffffffffffffffffffffffffffffffffffffffff1614156121d7576040517f08c379a00000000000000000000000000000000000000000000000000000000081526004016121ce90614156565b60405180910390fd5b6121e081612b0b565b50565b34600360006121f0612b03565b73ffffffffffffffffffffffffffffffffffffffff1673ffffffffffffffffffffffffffffffffffffffff16815260200190815260200160002060007f45544800000000000000000000000000000000000000000000000000000000008152602001908152602001600020600082825461226a9190614057565b92505081905550565b600081600001549050919050565b5b600085805490501180156122a557506000848054905011806122a45750600081115b5b1561293b576000806000905060008680549050111561233357856000815481106122d2576122d1613c8c565b5b906000526020600020906005020160010160009054906101000a900473ffffffffffffffffffffffffffffffffffffffff1691508560008154811061231a57612319613c8c565b5b9060005260206000209060050201600301549250612337565b3391505b6000600181111561234b5761234a613373565b5b84600181111561235e5761235d613373565b5b141561246c578660008154811061237857612377613c8c565b5b9060005260206000209060060201600301548760008154811061239e5761239d613c8c565b5b9060005260206000209060060201600401546123ba9190613b15565b600360008473ffffffffffffffffffffffffffffffffffffffff1673ffffffffffffffffffffffffffffffffffffffff16815260200190815260200160002060007f45544800000000000000000000000000000000000000000000000000000000008152602001908152602001600020541161246b576040517f08c379a0000000000000000000000000000000000000000000000000000000008152600401612462906141c2565b60405180910390fd5b5b866000815481106124805761247f613c8c565b5b906000526020600020906006020160030154831061256157866000815481106124ac576124ab613c8c565b5b906000526020600020906006020160030154836124c99190613c58565b92506001876000815481106124e1576124e0613c8c565b5b906000526020600020906006020160050160006101000a81548160ff0219169083151502179055508660008154811061251d5761251c613c8c565b5b906000526020600020906006020160030154905060008760008154811061254757612546613c8c565b5b9060005260206000209060060201600301819055506125d3565b8660008154811061257557612574613c8c565b5b9060005260206000209060060201600301548310156125d25782876000815481106125a3576125a2613c8c565b5b906000526020600020906006020160030160008282546125c39190613c58565b92505081905550829050600092505b5b600060018111156125e7576125e6613373565b5b8460018111156125fa576125f9613373565b5b1415612757576127528760008154811061261757612616613c8c565b5b90600052602060002090600602016040518060e0016040529081600082015481526020016001820160009054906101000a900473ffffffffffffffffffffffffffffffffffffffff1673ffffffffffffffffffffffffffffffffffffffff1673ffffffffffffffffffffffffffffffffffffffff1681526020016001820160149054906101000a900460ff1660018111156126b5576126b4613373565b5b60018111156126c7576126c6613373565b5b81526020016002820154815260200160038201548152602001600482015481526020016005820160009054906101000a900460ff161515151581525050828960008154811061271957612718613c8c565b5b906000526020600020906006020160010160009054906101000a900473ffffffffffffffffffffffffffffffffffffffff168589612bcf565b6128aa565b6128a98760008154811061276e5761276d613c8c565b5b90600052602060002090600602016040518060e0016040529081600082015481526020016001820160009054906101000a900473ffffffffffffffffffffffffffffffffffffffff1673ffffffffffffffffffffffffffffffffffffffff1673ffffffffffffffffffffffffffffffffffffffff1681526020016001820160149054906101000a900460ff16600181111561280c5761280b613373565b5b600181111561281e5761281d613373565b5b81526020016002820154815260200160038201548152602001600482015481526020016005820160009054906101000a900460ff16151515158152505082848a60008154811061287157612870613c8c565b5b906000526020600020906006020160010160009054906101000a900473ffffffffffffffffffffffffffffffffffffffff1689612bcf565b5b60008680549050111561292a5782866000815481106128cc576128cb613c8c565b5b906000526020600020906005020160030181905550600083141561292957600186600081548110612900576128ff613c8c565b5b906000526020600020906005020160040160006101000a81548160ff0219169083151502179055505b5b6129348787612dc7565b5050612282565b6000848054905014801561294f5750600081115b801561295f575060008580549050145b15612ae65760056000848152602001908152602001600020600083600181111561298c5761298b613373565b5b81526020019081526020016000206040518060c001604052806129af6007612273565b81526020013373ffffffffffffffffffffffffffffffffffffffff1681526020018460018111156129e3576129e2613373565b5b81526020018581526020018381526020016000151581525090806001815401808255809150506001900390600052602060002090600502016000909190919091506000820151816000015560208201518160010160006101000a81548173ffffffffffffffffffffffffffffffffffffffff021916908373ffffffffffffffffffffffffffffffffffffffff16021790555060408201518160010160146101000a81548160ff02191690836001811115612aa057612a9f613373565b5b0217905550606082015181600201556080820151816003015560a08201518160040160006101000a81548160ff0219169083151502179055505050612ae56007612aed565b5b5050505050565b6001816000016000828254019250508190555050565b600033905090565b60008060009054906101000a900473ffffffffffffffffffffffffffffffffffffffff169050816000806101000a81548173ffffffffffffffffffffffffffffffffffffffff021916908373ffffffffffffffffffffffffffffffffffffffff1602179055508173ffffffffffffffffffffffffffffffffffffffff168173ffffffffffffffffffffffffffffffffffffffff167f8be0079c531659141344cd1fd0a4f28419497f9722a3daafe3b4186f6b6457e060405160405180910390a35050565b6000848660a00151612be19190613b15565b905080600360008673ffffffffffffffffffffffffffffffffffffffff1673ffffffffffffffffffffffffffffffffffffffff16815260200190815260200160002060007f455448000000000000000000000000000000000000000000000000000000000081526020019081526020016000206000828254612c639190614057565b9250508190555084600360008673ffffffffffffffffffffffffffffffffffffffff1673ffffffffffffffffffffffffffffffffffffffff16815260200190815260200160002060008481526020019081526020016000206000828254612cca9190613c58565b9250508190555080600360008573ffffffffffffffffffffffffffffffffffffffff1673ffffffffffffffffffffffffffffffffffffffff16815260200190815260200160002060007f455448000000000000000000000000000000000000000000000000000000000081526020019081526020016000206000828254612d519190613c58565b9250508190555084600360008573ffffffffffffffffffffffffffffffffffffffff1673ffffffffffffffffffffffffffffffffffffffff16815260200190815260200160002060008481526020019081526020016000206000828254612db89190614057565b92505081905550505050505050565b81600081548110612ddb57612dda613c8c565b5b906000526020600020906006020160050160009054906101000a900460ff16156130125760005b60018380549050612e139190613c58565b811015612f775782600182612e289190614057565b81548110612e3957612e38613c8c565b5b9060005260206000209060060201838281548110612e5a57612e59613c8c565b5b9060005260206000209060060201600082015481600001556001820160009054906101000a900473ffffffffffffffffffffffffffffffffffffffff168160010160006101000a81548173ffffffffffffffffffffffffffffffffffffffff021916908373ffffffffffffffffffffffffffffffffffffffff1602179055506001820160149054906101000a900460ff168160010160146101000a81548160ff02191690836001811115612f1157612f10613373565b5b02179055506002820154816002015560038201548160030155600482015481600401556005820160009054906101000a900460ff168160050160006101000a81548160ff0219169083151502179055509050508080612f6f906141e2565b915050612e02565b5081805480612f8957612f8861422b565b5b60019003818190600052602060002090600602016000808201600090556001820160006101000a81549073ffffffffffffffffffffffffffffffffffffffff02191690556001820160146101000a81549060ff02191690556002820160009055600382016000905560048201600090556005820160006101000a81549060ff0219169055505090555b6000818054905011801561305557508060008154811061303557613034613c8c565b5b906000526020600020906005020160040160009054906101000a900460ff165b1561325b5760005b6001828054905061306e9190613c58565b8110156131c857816001826130839190614057565b8154811061309457613093613c8c565b5b90600052602060002090600502018282815481106130b5576130b4613c8c565b5b9060005260206000209060050201600082015481600001556001820160009054906101000a900473ffffffffffffffffffffffffffffffffffffffff168160010160006101000a81548173ffffffffffffffffffffffffffffffffffffffff021916908373ffffffffffffffffffffffffffffffffffffffff1602179055506001820160149054906101000a900460ff168160010160146101000a81548160ff0219169083600181111561316c5761316b613373565b5b021790555060028201548160020155600382015481600301556004820160009054906101000a900460ff168160040160006101000a81548160ff02191690831515021790555090505080806131c0906141e2565b91505061305d565b50808054806131da576131d961422b565b5b60019003818190600052602060002090600502016000808201600090556001820160006101000a81549073ffffffffffffffffffffffffffffffffffffffff02191690556001820160146101000a81549060ff0219169055600282016000905560038201600090556004820160006101000a81549060ff0219169055505090555b5050565b600080fd5b6000819050919050565b61327781613264565b811461328257600080fd5b50565b6000813590506132948161326e565b92915050565b6000819050919050565b6132ad8161329a565b81146132b857600080fd5b50565b6000813590506132ca816132a4565b92915050565b6000806000606084860312156132e9576132e861325f565b5b60006132f786828701613285565b9350506020613308868287016132bb565b9250506040613319868287016132bb565b9150509250925092565b61332c8161329a565b82525050565b600073ffffffffffffffffffffffffffffffffffffffff82169050919050565b600061335d82613332565b9050919050565b61336d81613352565b82525050565b7f4e487b7100000000000000000000000000000000000000000000000000000000600052602160045260246000fd5b600281106133b3576133b2613373565b5b50565b60008190506133c4826133a2565b919050565b60006133d4826133b6565b9050919050565b6133e4816133c9565b82525050565b6133f381613264565b82525050565b60008115159050919050565b61340e816133f9565b82525050565b600060e082019050613429600083018a613323565b6134366020830189613364565b61344360408301886133db565b61345060608301876133ea565b61345d6080830186613323565b61346a60a0830185613323565b61347760c0830184613405565b98975050505050505050565b61348c81613352565b811461349757600080fd5b50565b6000813590506134a981613483565b92915050565b600080604083850312156134c6576134c561325f565b5b60006134d48582860161349a565b92505060206134e585828601613285565b9150509250929050565b60006020820190506135046000830184613323565b92915050565b6002811061351757600080fd5b50565b6000813590506135298161350a565b92915050565b600080604083850312156135465761354561325f565b5b600061355485828601613285565b92505060206135658582860161351a565b9150509250929050565b600081519050919050565b600082825260208201905092915050565b6000819050602082019050919050565b6135a48161329a565b82525050565b6135b381613352565b82525050565b6135c2816133c9565b82525050565b6135d181613264565b82525050565b6135e0816133f9565b82525050565b60c0820160008201516135fc600085018261359b565b50602082015161360f60208501826135aa565b50604082015161362260408501826135b9565b50606082015161363560608501826135c8565b506080820151613648608085018261359b565b5060a082015161365b60a08501826135d7565b50505050565b600061366d83836135e6565b60c08301905092915050565b6000602082019050919050565b60006136918261356f565b61369b818561357a565b93506136a68361358b565b8060005b838110156136d75781516136be8882613661565b97506136c983613679565b9250506001810190506136aa565b5085935050505092915050565b600060208201905081810360008301526136fe8184613686565b905092915050565b600060c08201905061371b6000830189613323565b6137286020830188613364565b61373560408301876133db565b61374260608301866133ea565b61374f6080830185613323565b61375c60a0830184613405565b979650505050505050565b60006020828403121561377d5761377c61325f565b5b600061378b84828501613285565b91505092915050565b60006040820190506137a960008301856133ea565b6137b66020830184613364565b9392505050565b600080600080608085870312156137d7576137d661325f565b5b60006137e58782880161351a565b94505060206137f687828801613285565b9350506040613807878288016132bb565b9250506060613818878288016132bb565b91505092959194509250565b60006020820190506138396000830184613364565b92915050565b600080604083850312156138565761385561325f565b5b600061386485828601613285565b92505060206138758582860161349a565b9150509250929050565b6000806000606084860312156138985761389761325f565b5b60006138a68682870161351a565b93505060206138b786828701613285565b92505060406138c8868287016132bb565b9150509250925092565b600080604083850312156138e9576138e861325f565b5b60006138f7858286016132bb565b925050602061390885828601613285565b9150509250929050565b600081519050919050565b600082825260208201905092915050565b6000819050602082019050919050565b60e082016000820151613954600085018261359b565b50602082015161396760208501826135aa565b50604082015161397a60408501826135b9565b50606082015161398d60608501826135c8565b5060808201516139a0608085018261359b565b5060a08201516139b360a085018261359b565b5060c08201516139c660c08501826135d7565b50505050565b60006139d8838361393e565b60e08301905092915050565b6000602082019050919050565b60006139fc82613912565b613a06818561391d565b9350613a118361392e565b8060005b83811015613a42578151613a2988826139cc565b9750613a34836139e4565b925050600181019050613a15565b5085935050505092915050565b60006020820190508181036000830152613a6981846139f1565b905092915050565b600060208284031215613a8757613a8661325f565b5b6000613a95848285016132bb565b91505092915050565b6000602082019050613ab360008301846133ea565b92915050565b600060208284031215613acf57613ace61325f565b5b6000613add8482850161349a565b91505092915050565b7f4e487b7100000000000000000000000000000000000000000000000000000000600052601160045260246000fd5b6000613b208261329a565b9150613b2b8361329a565b9250817fffffffffffffffffffffffffffffffffffffffffffffffffffffffffffffffff0483118215151615613b6457613b63613ae6565b5b828202905092915050565b600082825260208201905092915050565b7f436f7374206578646565647320746865204554482062616c616e636500000000600082015250565b6000613bb6601c83613b6f565b9150613bc182613b80565b602082019050919050565b60006020820190508181036000830152613be581613ba9565b9050919050565b7f496e73756666696369656e7420746f6b656e7320746f2073656c6c0000000000600082015250565b6000613c22601b83613b6f565b9150613c2d82613bec565b602082019050919050565b60006020820190508181036000830152613c5181613c15565b9050919050565b6000613c638261329a565b9150613c6e8361329a565b925082821015613c8157613c80613ae6565b5b828203905092915050565b7f4e487b7100000000000000000000000000000000000000000000000000000000600052603260045260246000fd5b6000613cc68261329a565b91506000821415613cda57613cd9613ae6565b5b600182039050919050565b7f4f776e61626c653a2063616c6c6572206973206e6f7420746865206f776e6572600082015250565b6000613d1b602083613b6f565b9150613d2682613ce5565b602082019050919050565b60006020820190508181036000830152613d4a81613d0e565b9050919050565b7f57616c6c65743a20546f6b656e20616c72656164792065786973740000000000600082015250565b6000613d87601b83613b6f565b9150613d9282613d51565b602082019050919050565b60006020820190508181036000830152613db681613d7a565b9050919050565b7f496e737566666963656e7420746f6b656e7320746f2073656c6c000000000000600082015250565b6000613df3601a83613b6f565b9150613dfe82613dbd565b602082019050919050565b60006020820190508181036000830152613e2281613de6565b9050919050565b7f57616c6c65743a20746f6b656e20646f65736e27742065786973740000000000600082015250565b6000613e5f601b83613b6f565b9150613e6a82613e29565b602082019050919050565b60006020820190508181036000830152613e8e81613e52565b9050919050565b7f57616c6c65743a20696e73756666696369656e742062616c616e636500000000600082015250565b6000613ecb601c83613b6f565b9150613ed682613e95565b602082019050919050565b60006020820190508181036000830152613efa81613ebe565b9050919050565b6000604082019050613f166000830185613364565b613f236020830184613323565b9392505050565b613f33816133f9565b8114613f3e57600080fd5b50565b600081519050613f5081613f2a565b92915050565b600060208284031215613f6c57613f6b61325f565b5b6000613f7a84828501613f41565b91505092915050565b600081519050613f92816132a4565b92915050565b600060208284031215613fae57613fad61325f565b5b6000613fbc84828501613f83565b91505092915050565b7f4465706f7369742062616c616e636520696e20796f757220746f6b656e20636f60008201527f6e74726163740000000000000000000000000000000000000000000000000000602082015250565b6000614021602683613b6f565b915061402c82613fc5565b604082019050919050565b6000602082019050818103600083015261405081614014565b9050919050565b60006140628261329a565b915061406d8361329a565b9250827fffffffffffffffffffffffffffffffffffffffffffffffffffffffffffffffff038211156140a2576140a1613ae6565b5b828201905092915050565b60006060820190506140c26000830186613364565b6140cf6020830185613364565b6140dc6040830184613323565b949350505050565b7f4f776e61626c653a206e6577206f776e657220697320746865207a65726f206160008201527f6464726573730000000000000000000000000000000000000000000000000000602082015250565b6000614140602683613b6f565b915061414b826140e4565b604082019050919050565b6000602082019050818103600083015261416f81614133565b9050919050565b7f496e73756666696369656e742045544800000000000000000000000000000000600082015250565b60006141ac601083613b6f565b91506141b782614176565b602082019050919050565b600060208201905081810360008301526141db8161419f565b9050919050565b60006141ed8261329a565b91507fffffffffffffffffffffffffffffffffffffffffffffffffffffffffffffffff8214156142205761421f613ae6565b5b600182019050919050565b7f4e487b7100000000000000000000000000000000000000000000000000000000600052603160045260246000fdfea2646970667358221220650c61a7e1b9e529bb99ac8d1ce32d3d20afd68fba2be3de9db1e23a2a47fdf364736f6c634300080b0033",
  "immutableReferences": {},
  "source": "/**\r\n *Submitted for verification at BscScan.com on 2022-02-24\r\n*/\r\n\r\n// File: @openzeppelin/contracts/utils/Counters.sol\r\n\r\n\r\n// OpenZeppelin Contracts v4.4.1 (utils/Counters.sol)\r\n\r\npragma solidity ^0.8.0;\r\n\r\n/**\r\n * @title Counters\r\n * @author Matt Condon (@shrugs)\r\n * @dev Provides counters that can only be incremented, decremented or reset. This can be used e.g. to track the number\r\n * of elements in a mapping, issuing ERC721 ids, or counting request ids.\r\n *\r\n * Include with `using Counters for Counters.Counter;`\r\n */\r\nlibrary Counters {\r\n    struct Counter {\r\n        // This variable should never be directly accessed by users of the library: interactions must be restricted to\r\n        // the library's function. As of Solidity v0.5.2, this cannot be enforced, though there is a proposal to add\r\n        // this feature: see https://github.com/ethereum/solidity/issues/4637\r\n        uint256 _value; // default: 0\r\n    }\r\n\r\n    function current(Counter storage counter) internal view returns (uint256) {\r\n        return counter._value;\r\n    }\r\n\r\n    function increment(Counter storage counter) internal {\r\n        unchecked {\r\n            counter._value += 1;\r\n        }\r\n    }\r\n\r\n    function decrement(Counter storage counter) internal {\r\n        uint256 value = counter._value;\r\n        require(value > 0, \"Counter: decrement overflow\");\r\n        unchecked {\r\n            counter._value = value - 1;\r\n        }\r\n    }\r\n\r\n    function reset(Counter storage counter) internal {\r\n        counter._value = 0;\r\n    }\r\n}\r\n\r\n// File: @openzeppelin/contracts/token/ERC20/IERC20.sol\r\n\r\n\r\n// OpenZeppelin Contracts (last updated v4.5.0) (token/ERC20/IERC20.sol)\r\n\r\npragma solidity ^0.8.0;\r\n\r\n/**\r\n * @dev Interface of the ERC20 standard as defined in the EIP.\r\n */\r\ninterface IERC20 {\r\n    /**\r\n     * @dev Returns the amount of tokens in existence.\r\n     */\r\n    function totalSupply() external view returns (uint256);\r\n\r\n    /**\r\n     * @dev Returns the amount of tokens owned by `account`.\r\n     */\r\n    function balanceOf(address account) external view returns (uint256);\r\n\r\n    /**\r\n     * @dev Moves `amount` tokens from the caller's account to `to`.\r\n     *\r\n     * Returns a boolean value indicating whether the operation succeeded.\r\n     *\r\n     * Emits a {Transfer} event.\r\n     */\r\n    function transfer(address to, uint256 amount) external returns (bool);\r\n\r\n    /**\r\n     * @dev Returns the remaining number of tokens that `spender` will be\r\n     * allowed to spend on behalf of `owner` through {transferFrom}. This is\r\n     * zero by default.\r\n     *\r\n     * This value changes when {approve} or {transferFrom} are called.\r\n     */\r\n    function allowance(address owner, address spender) external view returns (uint256);\r\n\r\n    /**\r\n     * @dev Sets `amount` as the allowance of `spender` over the caller's tokens.\r\n     *\r\n     * Returns a boolean value indicating whether the operation succeeded.\r\n     *\r\n     * IMPORTANT: Beware that changing an allowance with this method brings the risk\r\n     * that someone may use both the old and the new allowance by unfortunate\r\n     * transaction ordering. One possible solution to mitigate this race\r\n     * condition is to first reduce the spender's allowance to 0 and set the\r\n     * desired value afterwards:\r\n     * https://github.com/ethereum/EIPs/issues/20#issuecomment-263524729\r\n     *\r\n     * Emits an {Approval} event.\r\n     */\r\n    function approve(address spender, uint256 amount) external returns (bool);\r\n\r\n    /**\r\n     * @dev Moves `amount` tokens from `from` to `to` using the\r\n     * allowance mechanism. `amount` is then deducted from the caller's\r\n     * allowance.\r\n     *\r\n     * Returns a boolean value indicating whether the operation succeeded.\r\n     *\r\n     * Emits a {Transfer} event.\r\n     */\r\n    function transferFrom(\r\n        address from,\r\n        address to,\r\n        uint256 amount\r\n    ) external returns (bool);\r\n\r\n    /**\r\n     * @dev Emitted when `value` tokens are moved from one account (`from`) to\r\n     * another (`to`).\r\n     *\r\n     * Note that `value` may be zero.\r\n     */\r\n    event Transfer(address indexed from, address indexed to, uint256 value);\r\n\r\n    /**\r\n     * @dev Emitted when the allowance of a `spender` for an `owner` is set by\r\n     * a call to {approve}. `value` is the new allowance.\r\n     */\r\n    event Approval(address indexed owner, address indexed spender, uint256 value);\r\n}\r\n\r\n// File: @openzeppelin/contracts/utils/Context.sol\r\n\r\n\r\n// OpenZeppelin Contracts v4.4.1 (utils/Context.sol)\r\n\r\npragma solidity ^0.8.0;\r\n\r\n/**\r\n * @dev Provides information about the current execution context, including the\r\n * sender of the transaction and its data. While these are generally available\r\n * via msg.sender and msg.data, they should not be accessed in such a direct\r\n * manner, since when dealing with meta-transactions the account sending and\r\n * paying for execution may not be the actual sender (as far as an application\r\n * is concerned).\r\n *\r\n * This contract is only required for intermediate, library-like contracts.\r\n */\r\nabstract contract Context {\r\n    function _msgSender() internal view virtual returns (address) {\r\n        return msg.sender;\r\n    }\r\n\r\n    function _msgData() internal view virtual returns (bytes calldata) {\r\n        return msg.data;\r\n    }\r\n}\r\n\r\n// File: @openzeppelin/contracts/access/Ownable.sol\r\n\r\n\r\n// OpenZeppelin Contracts v4.4.1 (access/Ownable.sol)\r\n\r\npragma solidity ^0.8.0;\r\n\r\n\r\n/**\r\n * @dev Contract module which provides a basic access control mechanism, where\r\n * there is an account (an owner) that can be granted exclusive access to\r\n * specific functions.\r\n *\r\n * By default, the owner account will be the one that deploys the contract. This\r\n * can later be changed with {transferOwnership}.\r\n *\r\n * This module is used through inheritance. It will make available the modifier\r\n * `onlyOwner`, which can be applied to your functions to restrict their use to\r\n * the owner.\r\n */\r\nabstract contract Ownable is Context {\r\n    address private _owner;\r\n\r\n    event OwnershipTransferred(address indexed previousOwner, address indexed newOwner);\r\n\r\n    /**\r\n     * @dev Initializes the contract setting the deployer as the initial owner.\r\n     */\r\n    constructor() {\r\n        _transferOwnership(_msgSender());\r\n    }\r\n\r\n    /**\r\n     * @dev Returns the address of the current owner.\r\n     */\r\n    function owner() public view virtual returns (address) {\r\n        return _owner;\r\n    }\r\n\r\n    /**\r\n     * @dev Throws if called by any account other than the owner.\r\n     */\r\n    modifier onlyOwner() {\r\n        require(owner() == _msgSender(), \"Ownable: caller is not the owner\");\r\n        _;\r\n    }\r\n\r\n    /**\r\n     * @dev Leaves the contract without owner. It will not be possible to call\r\n     * `onlyOwner` functions anymore. Can only be called by the current owner.\r\n     *\r\n     * NOTE: Renouncing ownership will leave the contract without an owner,\r\n     * thereby removing any functionality that is only available to the owner.\r\n     */\r\n    function renounceOwnership() public virtual onlyOwner {\r\n        _transferOwnership(address(0));\r\n    }\r\n\r\n    /**\r\n     * @dev Transfers ownership of the contract to a new account (`newOwner`).\r\n     * Can only be called by the current owner.\r\n     */\r\n    function transferOwnership(address newOwner) public virtual onlyOwner {\r\n        require(newOwner != address(0), \"Ownable: new owner is the zero address\");\r\n        _transferOwnership(newOwner);\r\n    }\r\n\r\n    /**\r\n     * @dev Transfers ownership of the contract to a new account (`newOwner`).\r\n     * Internal function without access restriction.\r\n     */\r\n    function _transferOwnership(address newOwner) internal virtual {\r\n        address oldOwner = _owner;\r\n        _owner = newOwner;\r\n        emit OwnershipTransferred(oldOwner, newOwner);\r\n    }\r\n}\r\n\r\n// File: contracts/MyWallet.sol\r\n\r\n\r\npragma solidity >=0.4.22 <0.9.0;\r\n\r\n\r\n\r\n\r\ncontract MyWallet is Ownable{\r\n\r\n  struct Token{\r\n      bytes32 ticker;\r\n      address tokenAddress;\r\n  }\r\n   bytes32[] public tickerList;\r\n   mapping(bytes32 => Token) public tokenMapping;\r\n   mapping(address => mapping(bytes32 => uint)) public balances;\r\n   \r\n   modifier tokenExist(bytes32 _ticker){\r\n      require(tokenMapping[_ticker].tokenAddress != address(0),\"Wallet: token doesn't exist\");\r\n      _;\r\n   }\r\n\r\n   function addToken(bytes32 _ticker,address _tickerAddress) external onlyOwner{\r\n      require(tokenMapping[_ticker].tokenAddress == address(0),\"Wallet: Token already exist\");\r\n      tokenMapping[_ticker] = Token(_ticker,_tickerAddress);\r\n      tickerList.push(_ticker);\r\n   } \r\n   \r\n   function deposit(uint _amount,bytes32 _ticker) external tokenExist(_ticker){\r\n       IERC20 instance = IERC20(tokenMapping[_ticker].tokenAddress);\r\n       require(instance.balanceOf(_msgSender()) >= _amount,\"Deposit balance in your token contract\");\r\n       balances[_msgSender()][_ticker] += _amount;\r\n       instance.transferFrom(_msgSender(), address(this), _amount);\r\n   \r\n   }\r\n\r\n   function depositETH() public payable{\r\n      balances[_msgSender()][\"ETH\"] += msg.value;\r\n    }\r\n   \r\n   function withdraw(uint _amount,bytes32 _ticker)external tokenExist(_ticker){\r\n        require(balances[_msgSender()][_ticker] >= _amount,\"Wallet: insufficient balance\");\r\n        balances[_msgSender()][_ticker] -= _amount;\r\n        IERC20(tokenMapping[_ticker].tokenAddress).transfer(_msgSender(), _amount);\r\n   }\r\n   \r\n}\r\n// File: contracts/Dex.sol\r\n\r\n\r\n\r\npragma solidity >=0.4.22 <0.9.0;\r\n\r\n\r\n\r\n\r\ncontract Dex is MyWallet{\r\n\r\n    using Counters for Counters.Counter; \r\n    \r\n    enum Side{\r\n        BUY,\r\n        SELL\r\n    }\r\n\r\n   struct Order{\r\n       uint id;\r\n       address trader;\r\n       Side side;\r\n       bytes32 ticker;\r\n       uint amount;\r\n       uint price;\r\n       bool filled;\r\n   }\r\n\r\n    struct marketOrder{\r\n       uint id;\r\n       address trader;\r\n       Side side;\r\n       bytes32 ticker;\r\n       uint amount;\r\n       bool filled;\r\n   }\r\n   \r\n   mapping(bytes32 => mapping(uint => Order[]))public orderBook;\r\n   mapping(bytes32 => mapping(uint => marketOrder[]))public marketOrderBook;\r\n   Counters.Counter private _counterIds;\r\n   Counters.Counter private _marketIds;\r\n\r\n   function getBalance(bytes32 ticker) public view returns (uint256) {\r\n       return balances[msg.sender][ticker];\r\n   }\r\n  \r\n   function getOrderBook(bytes32 _ticker,Side side) public view returns(Order[] memory){\r\n       return orderBook[_ticker][uint(side)];\r\n   }\r\n\r\n   function getMarketOrderBook(bytes32 _ticker,Side side) public view returns(marketOrder[] memory){\r\n       return marketOrderBook[_ticker][uint(side)];\r\n   }\r\n \r\n   function createLimitOrder(Side side,bytes32 ticker,uint amount, uint price) public{\r\n        if(side == Side.BUY){\r\n            require(getBalance(\"ETH\") >= amount * price,'Cost exdeeds the ETH balance');\r\n        }\r\n        else if(side == Side.SELL){\r\n            require(getBalance(ticker) >= amount,'Insufficient tokens to sell');\r\n        }\r\n\r\n        uint256 newCounterId = _counterIds.current();\r\n        Order[] storage orders = orderBook[ticker][uint(side)];\r\n        orders.push(Order(newCounterId,msg.sender,side,ticker,amount,price, false));\r\n         \r\n        uint j =  orders.length > 0 ? orders.length-1 : 0;\r\n         if(side == Side.BUY){\r\n            for( ; j > 0 ; j--){\r\n                 if(orders[j].price > orders[j-1].price){\r\n                    Order memory temp = orders[j];\r\n                    orders[j] = orders[j-1];\r\n                    orders[j-1] = temp;\r\n                }\r\n                else{\r\n                    break;\r\n                }\r\n            }\r\n            if(marketOrderBook[ticker][1].length > 0){\r\n              settleOrder(orders, marketOrderBook[ticker][1], ticker, Side.SELL,0);\r\n            }\r\n            \r\n         }\r\n         else if(side == Side.SELL){\r\n            for(; j > 0 ; j--){\r\n                 if(orders[j].price < orders[j-1].price){\r\n                    Order memory temp = orders[j];\r\n                    orders[j] = orders[j-1];\r\n                    orders[j-1] = temp;\r\n                }\r\n                else{\r\n                    break;\r\n                }\r\n            }\r\n            if(marketOrderBook[ticker][0].length > 0){\r\n              settleOrder(orders, marketOrderBook[ticker][0], ticker, Side.BUY,0);\r\n            }\r\n            \r\n         }\r\n          _counterIds.increment();\r\n    }\r\n   \r\n   function createMarketOrder(Side side, bytes32 ticker, uint amount) public {\r\n    \r\n        if(Side.SELL == side){\r\n            require(amount <= getBalance(ticker),\"Insufficent tokens to sell\");\r\n        \r\n            uint newCounterId = _marketIds.current();\r\n            marketOrder[] storage marketOrders = marketOrderBook[ticker][1];\r\n            Order[] storage orders = orderBook[ticker][0];\r\n            if(orders.length == 0){\r\n              marketOrders.push(marketOrder(newCounterId,msg.sender,side,ticker,amount, false));\r\n              _marketIds.increment();\r\n            }\r\n            else{\r\n              settleOrder(orders, marketOrders, ticker, side,amount);\r\n            }\r\n            \r\n        }\r\n        else if(Side.BUY == side){\r\n            uint newCounterId = _marketIds.current();\r\n            marketOrder[] storage marketOrders = marketOrderBook[ticker][0];\r\n            Order[] storage orders = orderBook[ticker][1]; \r\n            if(orders.length == 0){\r\n               marketOrders.push(marketOrder(newCounterId,msg.sender,side,ticker,amount, false));\r\n               _marketIds.increment();\r\n            }\r\n            else{\r\n              settleOrder(orderBook[ticker][1], marketOrderBook[ticker][0], ticker, side,amount);\r\n            }\r\n        }\r\n         \r\n   }\r\n\r\n   function settleOrder(Order[] storage orders, marketOrder[] storage marketOrders, bytes32 ticker, Side side,uint amount) private {\r\n            \r\n       while(orders.length > 0 && (marketOrders.length > 0 || amount > 0)){\r\n           address trader;\r\n           uint expectedAmount = 0;\r\n           if(marketOrders.length > 0){\r\n               trader = marketOrders[0].trader;\r\n               amount = marketOrders[0].amount;\r\n           }\r\n           else{\r\n               trader = msg.sender;\r\n           }\r\n           if (side == Side.BUY) {\r\n                require(balances[trader][\"ETH\"] > orders[0].price * orders[0].amount,\"Insufficient ETH\");\r\n            }\r\n           \r\n            if (amount >= orders[0].amount) {\r\n                amount -= orders[0].amount;\r\n                orders[0].filled = true;\r\n                expectedAmount = orders[0].amount;\r\n                orders[0].amount = 0;\r\n            }\r\n         \r\n            else if(amount < orders[0].amount){\r\n                orders[0].amount -= amount;\r\n                expectedAmount = amount;\r\n                amount = 0;\r\n            }\r\n            \r\n            if (side == Side.BUY) {\r\n                settleTrade(orders[0], expectedAmount, orders[0].trader, trader, ticker);\r\n            }\r\n            else {\r\n                settleTrade(orders[0], expectedAmount, trader, orders[0].trader, ticker);\r\n            }\r\n            \r\n            if(marketOrders.length > 0){\r\n                marketOrders[0].amount = amount;\r\n                if(amount == 0){\r\n                  marketOrders[0].filled = true;\r\n                }\r\n            }\r\n            deleteOrders(orders, marketOrders);\r\n        }\r\n        if(marketOrders.length == 0 && amount > 0 && orders.length == 0 ){\r\n           marketOrderBook[ticker][uint256(side)].push(marketOrder(_marketIds.current(),msg.sender,side,ticker,amount, false));\r\n           _marketIds.increment();\r\n        }\r\n    }\r\n\r\n   function deleteOrders(Order[] storage orders, marketOrder[] storage marketOrders) private {\r\n\r\n    if (orders[0].filled) {\r\n            \r\n        for (uint j = 0; j < orders.length-1; j++){\r\n            orders[j] = orders[j+1];\r\n        }    \r\n        orders.pop();\r\n    }\r\n\r\n    if(marketOrders.length > 0 && marketOrders[0].filled){\r\n       for (uint j = 0; j < marketOrders.length-1; j++){\r\n            marketOrders[j] = marketOrders[j+1];\r\n        }    \r\n            marketOrders.pop();\r\n    }\r\n   }\r\n   \r\n   function settleTrade(Order memory temp, uint amt, address seller, address buyer,bytes32 _ticker) private{\r\n        uint cost = temp.price * amt;\r\n        balances[seller][\"ETH\"] += cost; \r\n        balances[seller][_ticker] -= amt; \r\n        balances[buyer][\"ETH\"] -= cost; \r\n        balances[buyer][_ticker] += amt; \r\n   }\r\n  \r\n}",
  "sourcePath": "C:\\Users\\User\\Documents\\Narfex-DEX2\\contracts\\Narfex-Dex.sol",
  "compiler": {
    "name": "solc",
    "version": "0.8.11+commit.d7f03943.Emscripten.clang"
  },
  "schemaVersion": "3.4.4",
  "updatedAt": "2022-04-01T14:30:57.022Z",
  "devdoc": {
    "kind": "dev",
    "methods": {
      "owner()": {
        "details": "Returns the address of the current owner."
      },
      "renounceOwnership()": {
        "details": "Leaves the contract without owner. It will not be possible to call `onlyOwner` functions anymore. Can only be called by the current owner. NOTE: Renouncing ownership will leave the contract without an owner, thereby removing any functionality that is only available to the owner."
      },
      "transferOwnership(address)": {
        "details": "Transfers ownership of the contract to a new account (`newOwner`). Can only be called by the current owner."
      }
    },
    "version": 1
  },
  "userdoc": {
    "kind": "user",
    "methods": {},
    "version": 1
  }
}