{
  "contractName": "MyWallet",
  "abi": [
    {
      "anonymous": false,
      "inputs": [
        {
          "indexed": true,
          "internalType": "address",
          "name": "previousOwner",
          "type": "address"
        },
        {
          "indexed": true,
          "internalType": "address",
          "name": "newOwner",
          "type": "address"
        }
      ],
      "name": "OwnershipTransferred",
      "type": "event"
    },
    {
      "inputs": [
        {
          "internalType": "address",
          "name": "",
          "type": "address"
        },
        {
          "internalType": "bytes32",
          "name": "",
          "type": "bytes32"
        }
      ],
      "name": "balances",
      "outputs": [
        {
          "internalType": "uint256",
          "name": "",
          "type": "uint256"
        }
      ],
      "stateMutability": "view",
      "type": "function"
    },
    {
      "inputs": [],
      "name": "owner",
      "outputs": [
        {
          "internalType": "address",
          "name": "",
          "type": "address"
        }
      ],
      "stateMutability": "view",
      "type": "function"
    },
    {
      "inputs": [],
      "name": "renounceOwnership",
      "outputs": [],
      "stateMutability": "nonpayable",
      "type": "function"
    },
    {
      "inputs": [
        {
          "internalType": "uint256",
          "name": "",
          "type": "uint256"
        }
      ],
      "name": "tickerList",
      "outputs": [
        {
          "internalType": "bytes32",
          "name": "",
          "type": "bytes32"
        }
      ],
      "stateMutability": "view",
      "type": "function"
    },
    {
      "inputs": [
        {
          "internalType": "bytes32",
          "name": "",
          "type": "bytes32"
        }
      ],
      "name": "tokenMapping",
      "outputs": [
        {
          "internalType": "bytes32",
          "name": "ticker",
          "type": "bytes32"
        },
        {
          "internalType": "address",
          "name": "tokenAddress",
          "type": "address"
        }
      ],
      "stateMutability": "view",
      "type": "function"
    },
    {
      "inputs": [
        {
          "internalType": "address",
          "name": "newOwner",
          "type": "address"
        }
      ],
      "name": "transferOwnership",
      "outputs": [],
      "stateMutability": "nonpayable",
      "type": "function"
    },
    {
      "inputs": [
        {
          "internalType": "bytes32",
          "name": "_ticker",
          "type": "bytes32"
        },
        {
          "internalType": "address",
          "name": "_tickerAddress",
          "type": "address"
        }
      ],
      "name": "addToken",
      "outputs": [],
      "stateMutability": "nonpayable",
      "type": "function"
    },
    {
      "inputs": [
        {
          "internalType": "uint256",
          "name": "_amount",
          "type": "uint256"
        },
        {
          "internalType": "bytes32",
          "name": "_ticker",
          "type": "bytes32"
        }
      ],
      "name": "deposit",
      "outputs": [],
      "stateMutability": "nonpayable",
      "type": "function"
    },
    {
      "inputs": [],
      "name": "depositETH",
      "outputs": [],
      "stateMutability": "payable",
      "type": "function"
    },
    {
      "inputs": [
        {
          "internalType": "uint256",
          "name": "_amount",
          "type": "uint256"
        },
        {
          "internalType": "bytes32",
          "name": "_ticker",
          "type": "bytes32"
        }
      ],
      "name": "withdraw",
      "outputs": [],
      "stateMutability": "nonpayable",
      "type": "function"
    }
  ],
  "bytecode": "0x608060405234801561001057600080fd5b5061002d61002261003260201b60201c565b61003a60201b60201c565b6100fe565b600033905090565b60008060009054906101000a900473ffffffffffffffffffffffffffffffffffffffff169050816000806101000a81548173ffffffffffffffffffffffffffffffffffffffff021916908373ffffffffffffffffffffffffffffffffffffffff1602179055508173ffffffffffffffffffffffffffffffffffffffff168173ffffffffffffffffffffffffffffffffffffffff167f8be0079c531659141344cd1fd0a4f28419497f9722a3daafe3b4186f6b6457e060405160405180910390a35050565b6114598061010d6000396000f3fe6080604052600436106100915760003560e01c8063a8d2021a11610059578063a8d2021a1461017c578063c9630cb0146101a5578063cb3764a8146101ce578063f2fde38b1461020b578063f6326fb31461023457610091565b80631f14df6914610096578063667cb4ba146100d3578063715018a6146101115780638da5cb5b146101285780639776aacf14610153575b600080fd5b3480156100a257600080fd5b506100bd60048036038101906100b89190610d5a565b61023e565b6040516100ca9190610db3565b60405180910390f35b3480156100df57600080fd5b506100fa60048036038101906100f59190610dce565b610263565b604051610108929190610e19565b60405180910390f35b34801561011d57600080fd5b506101266102a7565b005b34801561013457600080fd5b5061013d61032f565b60405161014a9190610e42565b60405180910390f35b34801561015f57600080fd5b5061017a60048036038101906101759190610e5d565b610358565b005b34801561018857600080fd5b506101a3600480360381019061019e9190610ec9565b610538565b005b3480156101b157600080fd5b506101cc60048036038101906101c79190610ec9565b6107a8565b005b3480156101da57600080fd5b506101f560048036038101906101f09190610f09565b610a49565b6040516102029190610f36565b60405180910390f35b34801561021757600080fd5b50610232600480360381019061022d9190610f51565b610a6d565b005b61023c610b65565b005b6003602052816000526040600020602052806000526040600020600091509150505481565b60026020528060005260406000206000915090508060000154908060010160009054906101000a900473ffffffffffffffffffffffffffffffffffffffff16905082565b6102af610bf5565b73ffffffffffffffffffffffffffffffffffffffff166102cd61032f565b73ffffffffffffffffffffffffffffffffffffffff1614610323576040517f08c379a000000000000000000000000000000000000000000000000000000000815260040161031a90610fdb565b60405180910390fd5b61032d6000610bfd565b565b60008060009054906101000a900473ffffffffffffffffffffffffffffffffffffffff16905090565b610360610bf5565b73ffffffffffffffffffffffffffffffffffffffff1661037e61032f565b73ffffffffffffffffffffffffffffffffffffffff16146103d4576040517f08c379a00000000000000000000000000000000000000000000000000000000081526004016103cb90610fdb565b60405180910390fd5b600073ffffffffffffffffffffffffffffffffffffffff166002600084815260200190815260200160002060010160009054906101000a900473ffffffffffffffffffffffffffffffffffffffff1673ffffffffffffffffffffffffffffffffffffffff1614610479576040517f08c379a000000000000000000000000000000000000000000000000000000000815260040161047090611047565b60405180910390fd5b60405180604001604052808381526020018273ffffffffffffffffffffffffffffffffffffffff16815250600260008481526020019081526020016000206000820151816000015560208201518160010160006101000a81548173ffffffffffffffffffffffffffffffffffffffff021916908373ffffffffffffffffffffffffffffffffffffffff16021790555090505060018290806001815401808255809150506001900390600052602060002001600090919091909150555050565b80600073ffffffffffffffffffffffffffffffffffffffff166002600083815260200190815260200160002060010160009054906101000a900473ffffffffffffffffffffffffffffffffffffffff1673ffffffffffffffffffffffffffffffffffffffff1614156105df576040517f08c379a00000000000000000000000000000000000000000000000000000000081526004016105d6906110b3565b60405180910390fd5b82600360006105ec610bf5565b73ffffffffffffffffffffffffffffffffffffffff1673ffffffffffffffffffffffffffffffffffffffff1681526020019081526020016000206000848152602001908152602001600020541015610679576040517f08c379a00000000000000000000000000000000000000000000000000000000081526004016106709061111f565b60405180910390fd5b8260036000610686610bf5565b73ffffffffffffffffffffffffffffffffffffffff1673ffffffffffffffffffffffffffffffffffffffff168152602001908152602001600020600084815260200190815260200160002060008282546106e0919061116e565b925050819055506002600083815260200190815260200160002060010160009054906101000a900473ffffffffffffffffffffffffffffffffffffffff1673ffffffffffffffffffffffffffffffffffffffff1663a9059cbb610741610bf5565b856040518363ffffffff1660e01b815260040161075f9291906111a2565b6020604051808303816000875af115801561077e573d6000803e3d6000fd5b505050506040513d601f19601f820116820180604052508101906107a29190611203565b50505050565b80600073ffffffffffffffffffffffffffffffffffffffff166002600083815260200190815260200160002060010160009054906101000a900473ffffffffffffffffffffffffffffffffffffffff1673ffffffffffffffffffffffffffffffffffffffff16141561084f576040517f08c379a0000000000000000000000000000000000000000000000000000000008152600401610846906110b3565b60405180910390fd5b60006002600084815260200190815260200160002060010160009054906101000a900473ffffffffffffffffffffffffffffffffffffffff169050838173ffffffffffffffffffffffffffffffffffffffff166370a082316108af610bf5565b6040518263ffffffff1660e01b81526004016108cb9190610e42565b602060405180830381865afa1580156108e8573d6000803e3d6000fd5b505050506040513d601f19601f8201168201806040525081019061090c9190611245565b101561094d576040517f08c379a0000000000000000000000000000000000000000000000000000000008152600401610944906112e4565b60405180910390fd5b836003600061095a610bf5565b73ffffffffffffffffffffffffffffffffffffffff1673ffffffffffffffffffffffffffffffffffffffff168152602001908152602001600020600085815260200190815260200160002060008282546109b49190611304565b925050819055508073ffffffffffffffffffffffffffffffffffffffff166323b872dd6109df610bf5565b30876040518463ffffffff1660e01b81526004016109ff9392919061135a565b6020604051808303816000875af1158015610a1e573d6000803e3d6000fd5b505050506040513d601f19601f82011682018060405250810190610a429190611203565b5050505050565b60018181548110610a5957600080fd5b906000526020600020016000915090505481565b610a75610bf5565b73ffffffffffffffffffffffffffffffffffffffff16610a9361032f565b73ffffffffffffffffffffffffffffffffffffffff1614610ae9576040517f08c379a0000000000000000000000000000000000000000000000000000000008152600401610ae090610fdb565b60405180910390fd5b600073ffffffffffffffffffffffffffffffffffffffff168173ffffffffffffffffffffffffffffffffffffffff161415610b59576040517f08c379a0000000000000000000000000000000000000000000000000000000008152600401610b5090611403565b60405180910390fd5b610b6281610bfd565b50565b3460036000610b72610bf5565b73ffffffffffffffffffffffffffffffffffffffff1673ffffffffffffffffffffffffffffffffffffffff16815260200190815260200160002060007f455448000000000000000000000000000000000000000000000000000000000081526020019081526020016000206000828254610bec9190611304565b92505081905550565b600033905090565b60008060009054906101000a900473ffffffffffffffffffffffffffffffffffffffff169050816000806101000a81548173ffffffffffffffffffffffffffffffffffffffff021916908373ffffffffffffffffffffffffffffffffffffffff1602179055508173ffffffffffffffffffffffffffffffffffffffff168173ffffffffffffffffffffffffffffffffffffffff167f8be0079c531659141344cd1fd0a4f28419497f9722a3daafe3b4186f6b6457e060405160405180910390a35050565b600080fd5b600073ffffffffffffffffffffffffffffffffffffffff82169050919050565b6000610cf182610cc6565b9050919050565b610d0181610ce6565b8114610d0c57600080fd5b50565b600081359050610d1e81610cf8565b92915050565b6000819050919050565b610d3781610d24565b8114610d4257600080fd5b50565b600081359050610d5481610d2e565b92915050565b60008060408385031215610d7157610d70610cc1565b5b6000610d7f85828601610d0f565b9250506020610d9085828601610d45565b9150509250929050565b6000819050919050565b610dad81610d9a565b82525050565b6000602082019050610dc86000830184610da4565b92915050565b600060208284031215610de457610de3610cc1565b5b6000610df284828501610d45565b91505092915050565b610e0481610d24565b82525050565b610e1381610ce6565b82525050565b6000604082019050610e2e6000830185610dfb565b610e3b6020830184610e0a565b9392505050565b6000602082019050610e576000830184610e0a565b92915050565b60008060408385031215610e7457610e73610cc1565b5b6000610e8285828601610d45565b9250506020610e9385828601610d0f565b9150509250929050565b610ea681610d9a565b8114610eb157600080fd5b50565b600081359050610ec381610e9d565b92915050565b60008060408385031215610ee057610edf610cc1565b5b6000610eee85828601610eb4565b9250506020610eff85828601610d45565b9150509250929050565b600060208284031215610f1f57610f1e610cc1565b5b6000610f2d84828501610eb4565b91505092915050565b6000602082019050610f4b6000830184610dfb565b92915050565b600060208284031215610f6757610f66610cc1565b5b6000610f7584828501610d0f565b91505092915050565b600082825260208201905092915050565b7f4f776e61626c653a2063616c6c6572206973206e6f7420746865206f776e6572600082015250565b6000610fc5602083610f7e565b9150610fd082610f8f565b602082019050919050565b60006020820190508181036000830152610ff481610fb8565b9050919050565b7f57616c6c65743a20546f6b656e20616c72656164792065786973740000000000600082015250565b6000611031601b83610f7e565b915061103c82610ffb565b602082019050919050565b6000602082019050818103600083015261106081611024565b9050919050565b7f57616c6c65743a20746f6b656e20646f65736e27742065786973740000000000600082015250565b600061109d601b83610f7e565b91506110a882611067565b602082019050919050565b600060208201905081810360008301526110cc81611090565b9050919050565b7f57616c6c65743a20696e73756666696369656e742062616c616e636500000000600082015250565b6000611109601c83610f7e565b9150611114826110d3565b602082019050919050565b60006020820190508181036000830152611138816110fc565b9050919050565b7f4e487b7100000000000000000000000000000000000000000000000000000000600052601160045260246000fd5b600061117982610d9a565b915061118483610d9a565b9250828210156111975761119661113f565b5b828203905092915050565b60006040820190506111b76000830185610e0a565b6111c46020830184610da4565b9392505050565b60008115159050919050565b6111e0816111cb565b81146111eb57600080fd5b50565b6000815190506111fd816111d7565b92915050565b60006020828403121561121957611218610cc1565b5b6000611227848285016111ee565b91505092915050565b60008151905061123f81610e9d565b92915050565b60006020828403121561125b5761125a610cc1565b5b600061126984828501611230565b91505092915050565b7f4465706f7369742062616c616e636520696e20796f757220746f6b656e20636f60008201527f6e74726163740000000000000000000000000000000000000000000000000000602082015250565b60006112ce602683610f7e565b91506112d982611272565b604082019050919050565b600060208201905081810360008301526112fd816112c1565b9050919050565b600061130f82610d9a565b915061131a83610d9a565b9250827fffffffffffffffffffffffffffffffffffffffffffffffffffffffffffffffff0382111561134f5761134e61113f565b5b828201905092915050565b600060608201905061136f6000830186610e0a565b61137c6020830185610e0a565b6113896040830184610da4565b949350505050565b7f4f776e61626c653a206e6577206f776e657220697320746865207a65726f206160008201527f6464726573730000000000000000000000000000000000000000000000000000602082015250565b60006113ed602683610f7e565b91506113f882611391565b604082019050919050565b6000602082019050818103600083015261141c816113e0565b905091905056fea2646970667358221220e397bb53821db7bb024a1a75f332c972154407089a01b0f26adc8d8c25669b5a64736f6c634300080b0033",
  "immutableReferences": {},
  "source": "/**\r\n *Submitted for verification at BscScan.com on 2022-02-24\r\n*/\r\n\r\n// File: @openzeppelin/contracts/utils/Counters.sol\r\n\r\n\r\n// OpenZeppelin Contracts v4.4.1 (utils/Counters.sol)\r\n\r\npragma solidity ^0.8.0;\r\n\r\n/**\r\n * @title Counters\r\n * @author Matt Condon (@shrugs)\r\n * @dev Provides counters that can only be incremented, decremented or reset. This can be used e.g. to track the number\r\n * of elements in a mapping, issuing ERC721 ids, or counting request ids.\r\n *\r\n * Include with `using Counters for Counters.Counter;`\r\n */\r\nlibrary Counters {\r\n    struct Counter {\r\n        // This variable should never be directly accessed by users of the library: interactions must be restricted to\r\n        // the library's function. As of Solidity v0.5.2, this cannot be enforced, though there is a proposal to add\r\n        // this feature: see https://github.com/ethereum/solidity/issues/4637\r\n        uint256 _value; // default: 0\r\n    }\r\n\r\n    function current(Counter storage counter) internal view returns (uint256) {\r\n        return counter._value;\r\n    }\r\n\r\n    function increment(Counter storage counter) internal {\r\n        unchecked {\r\n            counter._value += 1;\r\n        }\r\n    }\r\n\r\n    function decrement(Counter storage counter) internal {\r\n        uint256 value = counter._value;\r\n        require(value > 0, \"Counter: decrement overflow\");\r\n        unchecked {\r\n            counter._value = value - 1;\r\n        }\r\n    }\r\n\r\n    function reset(Counter storage counter) internal {\r\n        counter._value = 0;\r\n    }\r\n}\r\n\r\n// File: @openzeppelin/contracts/token/ERC20/IERC20.sol\r\n\r\n\r\n// OpenZeppelin Contracts (last updated v4.5.0) (token/ERC20/IERC20.sol)\r\n\r\npragma solidity ^0.8.0;\r\n\r\n/**\r\n * @dev Interface of the ERC20 standard as defined in the EIP.\r\n */\r\ninterface IERC20 {\r\n    /**\r\n     * @dev Returns the amount of tokens in existence.\r\n     */\r\n    function totalSupply() external view returns (uint256);\r\n\r\n    /**\r\n     * @dev Returns the amount of tokens owned by `account`.\r\n     */\r\n    function balanceOf(address account) external view returns (uint256);\r\n\r\n    /**\r\n     * @dev Moves `amount` tokens from the caller's account to `to`.\r\n     *\r\n     * Returns a boolean value indicating whether the operation succeeded.\r\n     *\r\n     * Emits a {Transfer} event.\r\n     */\r\n    function transfer(address to, uint256 amount) external returns (bool);\r\n\r\n    /**\r\n     * @dev Returns the remaining number of tokens that `spender` will be\r\n     * allowed to spend on behalf of `owner` through {transferFrom}. This is\r\n     * zero by default.\r\n     *\r\n     * This value changes when {approve} or {transferFrom} are called.\r\n     */\r\n    function allowance(address owner, address spender) external view returns (uint256);\r\n\r\n    /**\r\n     * @dev Sets `amount` as the allowance of `spender` over the caller's tokens.\r\n     *\r\n     * Returns a boolean value indicating whether the operation succeeded.\r\n     *\r\n     * IMPORTANT: Beware that changing an allowance with this method brings the risk\r\n     * that someone may use both the old and the new allowance by unfortunate\r\n     * transaction ordering. One possible solution to mitigate this race\r\n     * condition is to first reduce the spender's allowance to 0 and set the\r\n     * desired value afterwards:\r\n     * https://github.com/ethereum/EIPs/issues/20#issuecomment-263524729\r\n     *\r\n     * Emits an {Approval} event.\r\n     */\r\n    function approve(address spender, uint256 amount) external returns (bool);\r\n\r\n    /**\r\n     * @dev Moves `amount` tokens from `from` to `to` using the\r\n     * allowance mechanism. `amount` is then deducted from the caller's\r\n     * allowance.\r\n     *\r\n     * Returns a boolean value indicating whether the operation succeeded.\r\n     *\r\n     * Emits a {Transfer} event.\r\n     */\r\n    function transferFrom(\r\n        address from,\r\n        address to,\r\n        uint256 amount\r\n    ) external returns (bool);\r\n\r\n    /**\r\n     * @dev Emitted when `value` tokens are moved from one account (`from`) to\r\n     * another (`to`).\r\n     *\r\n     * Note that `value` may be zero.\r\n     */\r\n    event Transfer(address indexed from, address indexed to, uint256 value);\r\n\r\n    /**\r\n     * @dev Emitted when the allowance of a `spender` for an `owner` is set by\r\n     * a call to {approve}. `value` is the new allowance.\r\n     */\r\n    event Approval(address indexed owner, address indexed spender, uint256 value);\r\n}\r\n\r\n// File: @openzeppelin/contracts/utils/Context.sol\r\n\r\n\r\n// OpenZeppelin Contracts v4.4.1 (utils/Context.sol)\r\n\r\npragma solidity ^0.8.0;\r\n\r\n/**\r\n * @dev Provides information about the current execution context, including the\r\n * sender of the transaction and its data. While these are generally available\r\n * via msg.sender and msg.data, they should not be accessed in such a direct\r\n * manner, since when dealing with meta-transactions the account sending and\r\n * paying for execution may not be the actual sender (as far as an application\r\n * is concerned).\r\n *\r\n * This contract is only required for intermediate, library-like contracts.\r\n */\r\nabstract contract Context {\r\n    function _msgSender() internal view virtual returns (address) {\r\n        return msg.sender;\r\n    }\r\n\r\n    function _msgData() internal view virtual returns (bytes calldata) {\r\n        return msg.data;\r\n    }\r\n}\r\n\r\n// File: @openzeppelin/contracts/access/Ownable.sol\r\n\r\n\r\n// OpenZeppelin Contracts v4.4.1 (access/Ownable.sol)\r\n\r\npragma solidity ^0.8.0;\r\n\r\n\r\n/**\r\n * @dev Contract module which provides a basic access control mechanism, where\r\n * there is an account (an owner) that can be granted exclusive access to\r\n * specific functions.\r\n *\r\n * By default, the owner account will be the one that deploys the contract. This\r\n * can later be changed with {transferOwnership}.\r\n *\r\n * This module is used through inheritance. It will make available the modifier\r\n * `onlyOwner`, which can be applied to your functions to restrict their use to\r\n * the owner.\r\n */\r\nabstract contract Ownable is Context {\r\n    address private _owner;\r\n\r\n    event OwnershipTransferred(address indexed previousOwner, address indexed newOwner);\r\n\r\n    /**\r\n     * @dev Initializes the contract setting the deployer as the initial owner.\r\n     */\r\n    constructor() {\r\n        _transferOwnership(_msgSender());\r\n    }\r\n\r\n    /**\r\n     * @dev Returns the address of the current owner.\r\n     */\r\n    function owner() public view virtual returns (address) {\r\n        return _owner;\r\n    }\r\n\r\n    /**\r\n     * @dev Throws if called by any account other than the owner.\r\n     */\r\n    modifier onlyOwner() {\r\n        require(owner() == _msgSender(), \"Ownable: caller is not the owner\");\r\n        _;\r\n    }\r\n\r\n    /**\r\n     * @dev Leaves the contract without owner. It will not be possible to call\r\n     * `onlyOwner` functions anymore. Can only be called by the current owner.\r\n     *\r\n     * NOTE: Renouncing ownership will leave the contract without an owner,\r\n     * thereby removing any functionality that is only available to the owner.\r\n     */\r\n    function renounceOwnership() public virtual onlyOwner {\r\n        _transferOwnership(address(0));\r\n    }\r\n\r\n    /**\r\n     * @dev Transfers ownership of the contract to a new account (`newOwner`).\r\n     * Can only be called by the current owner.\r\n     */\r\n    function transferOwnership(address newOwner) public virtual onlyOwner {\r\n        require(newOwner != address(0), \"Ownable: new owner is the zero address\");\r\n        _transferOwnership(newOwner);\r\n    }\r\n\r\n    /**\r\n     * @dev Transfers ownership of the contract to a new account (`newOwner`).\r\n     * Internal function without access restriction.\r\n     */\r\n    function _transferOwnership(address newOwner) internal virtual {\r\n        address oldOwner = _owner;\r\n        _owner = newOwner;\r\n        emit OwnershipTransferred(oldOwner, newOwner);\r\n    }\r\n}\r\n\r\n// File: contracts/MyWallet.sol\r\n\r\n\r\npragma solidity >=0.4.22 <0.9.0;\r\n\r\n\r\n\r\n\r\ncontract MyWallet is Ownable{\r\n\r\n  struct Token{\r\n      bytes32 ticker;\r\n      address tokenAddress;\r\n  }\r\n   bytes32[] public tickerList;\r\n   mapping(bytes32 => Token) public tokenMapping;\r\n   mapping(address => mapping(bytes32 => uint)) public balances;\r\n   \r\n   modifier tokenExist(bytes32 _ticker){\r\n      require(tokenMapping[_ticker].tokenAddress != address(0),\"Wallet: token doesn't exist\");\r\n      _;\r\n   }\r\n\r\n   function addToken(bytes32 _ticker,address _tickerAddress) external onlyOwner{\r\n      require(tokenMapping[_ticker].tokenAddress == address(0),\"Wallet: Token already exist\");\r\n      tokenMapping[_ticker] = Token(_ticker,_tickerAddress);\r\n      tickerList.push(_ticker);\r\n   } \r\n   \r\n   function deposit(uint _amount,bytes32 _ticker) external tokenExist(_ticker){\r\n       IERC20 instance = IERC20(tokenMapping[_ticker].tokenAddress);\r\n       require(instance.balanceOf(_msgSender()) >= _amount,\"Deposit balance in your token contract\");\r\n       balances[_msgSender()][_ticker] += _amount;\r\n       instance.transferFrom(_msgSender(), address(this), _amount);\r\n   \r\n   }\r\n\r\n   function depositETH() public payable{\r\n      balances[_msgSender()][\"ETH\"] += msg.value;\r\n    }\r\n   \r\n   function withdraw(uint _amount,bytes32 _ticker)external tokenExist(_ticker){\r\n        require(balances[_msgSender()][_ticker] >= _amount,\"Wallet: insufficient balance\");\r\n        balances[_msgSender()][_ticker] -= _amount;\r\n        IERC20(tokenMapping[_ticker].tokenAddress).transfer(_msgSender(), _amount);\r\n   }\r\n   \r\n}\r\n// File: contracts/Dex.sol\r\n\r\n\r\n\r\npragma solidity >=0.4.22 <0.9.0;\r\n\r\n\r\n\r\n\r\ncontract Dex is MyWallet{\r\n\r\n    using Counters for Counters.Counter; \r\n    \r\n    enum Side{\r\n        BUY,\r\n        SELL\r\n    }\r\n\r\n   struct Order{\r\n       uint id;\r\n       address trader;\r\n       Side side;\r\n       bytes32 ticker;\r\n       uint amount;\r\n       uint price;\r\n       bool filled;\r\n   }\r\n\r\n    struct marketOrder{\r\n       uint id;\r\n       address trader;\r\n       Side side;\r\n       bytes32 ticker;\r\n       uint amount;\r\n       bool filled;\r\n   }\r\n   \r\n   mapping(bytes32 => mapping(uint => Order[]))public orderBook;\r\n   mapping(bytes32 => mapping(uint => marketOrder[]))public marketOrderBook;\r\n   Counters.Counter private _counterIds;\r\n   Counters.Counter private _marketIds;\r\n\r\n   function getBalance(bytes32 ticker) public view returns (uint256) {\r\n       return balances[msg.sender][ticker];\r\n   }\r\n  \r\n   function getOrderBook(bytes32 _ticker,Side side) public view returns(Order[] memory){\r\n       return orderBook[_ticker][uint(side)];\r\n   }\r\n\r\n   function getMarketOrderBook(bytes32 _ticker,Side side) public view returns(marketOrder[] memory){\r\n       return marketOrderBook[_ticker][uint(side)];\r\n   }\r\n \r\n   function createLimitOrder(Side side,bytes32 ticker,uint amount, uint price) public{\r\n        if(side == Side.BUY){\r\n            require(getBalance(\"ETH\") >= amount * price,'Cost exdeeds the ETH balance');\r\n        }\r\n        else if(side == Side.SELL){\r\n            require(getBalance(ticker) >= amount,'Insufficient tokens to sell');\r\n        }\r\n\r\n        uint256 newCounterId = _counterIds.current();\r\n        Order[] storage orders = orderBook[ticker][uint(side)];\r\n        orders.push(Order(newCounterId,msg.sender,side,ticker,amount,price, false));\r\n         \r\n        uint j =  orders.length > 0 ? orders.length-1 : 0;\r\n         if(side == Side.BUY){\r\n            for( ; j > 0 ; j--){\r\n                 if(orders[j].price > orders[j-1].price){\r\n                    Order memory temp = orders[j];\r\n                    orders[j] = orders[j-1];\r\n                    orders[j-1] = temp;\r\n                }\r\n                else{\r\n                    break;\r\n                }\r\n            }\r\n            if(marketOrderBook[ticker][1].length > 0){\r\n              settleOrder(orders, marketOrderBook[ticker][1], ticker, Side.SELL,0);\r\n            }\r\n            \r\n         }\r\n         else if(side == Side.SELL){\r\n            for(; j > 0 ; j--){\r\n                 if(orders[j].price < orders[j-1].price){\r\n                    Order memory temp = orders[j];\r\n                    orders[j] = orders[j-1];\r\n                    orders[j-1] = temp;\r\n                }\r\n                else{\r\n                    break;\r\n                }\r\n            }\r\n            if(marketOrderBook[ticker][0].length > 0){\r\n              settleOrder(orders, marketOrderBook[ticker][0], ticker, Side.BUY,0);\r\n            }\r\n            \r\n         }\r\n          _counterIds.increment();\r\n    }\r\n   \r\n   function createMarketOrder(Side side, bytes32 ticker, uint amount) public {\r\n    \r\n        if(Side.SELL == side){\r\n            require(amount <= getBalance(ticker),\"Insufficent tokens to sell\");\r\n        \r\n            uint newCounterId = _marketIds.current();\r\n            marketOrder[] storage marketOrders = marketOrderBook[ticker][1];\r\n            Order[] storage orders = orderBook[ticker][0];\r\n            if(orders.length == 0){\r\n              marketOrders.push(marketOrder(newCounterId,msg.sender,side,ticker,amount, false));\r\n              _marketIds.increment();\r\n            }\r\n            else{\r\n              settleOrder(orders, marketOrders, ticker, side,amount);\r\n            }\r\n            \r\n        }\r\n        else if(Side.BUY == side){\r\n            uint newCounterId = _marketIds.current();\r\n            marketOrder[] storage marketOrders = marketOrderBook[ticker][0];\r\n            Order[] storage orders = orderBook[ticker][1]; \r\n            if(orders.length == 0){\r\n               marketOrders.push(marketOrder(newCounterId,msg.sender,side,ticker,amount, false));\r\n               _marketIds.increment();\r\n            }\r\n            else{\r\n              settleOrder(orderBook[ticker][1], marketOrderBook[ticker][0], ticker, side,amount);\r\n            }\r\n        }\r\n         \r\n   }\r\n\r\n   function settleOrder(Order[] storage orders, marketOrder[] storage marketOrders, bytes32 ticker, Side side,uint amount) private {\r\n            \r\n       while(orders.length > 0 && (marketOrders.length > 0 || amount > 0)){\r\n           address trader;\r\n           uint expectedAmount = 0;\r\n           if(marketOrders.length > 0){\r\n               trader = marketOrders[0].trader;\r\n               amount = marketOrders[0].amount;\r\n           }\r\n           else{\r\n               trader = msg.sender;\r\n           }\r\n           if (side == Side.BUY) {\r\n                require(balances[trader][\"ETH\"] > orders[0].price * orders[0].amount,\"Insufficient ETH\");\r\n            }\r\n           \r\n            if (amount >= orders[0].amount) {\r\n                amount -= orders[0].amount;\r\n                orders[0].filled = true;\r\n                expectedAmount = orders[0].amount;\r\n                orders[0].amount = 0;\r\n            }\r\n         \r\n            else if(amount < orders[0].amount){\r\n                orders[0].amount -= amount;\r\n                expectedAmount = amount;\r\n                amount = 0;\r\n            }\r\n            \r\n            if (side == Side.BUY) {\r\n                settleTrade(orders[0], expectedAmount, orders[0].trader, trader, ticker);\r\n            }\r\n            else {\r\n                settleTrade(orders[0], expectedAmount, trader, orders[0].trader, ticker);\r\n            }\r\n            \r\n            if(marketOrders.length > 0){\r\n                marketOrders[0].amount = amount;\r\n                if(amount == 0){\r\n                  marketOrders[0].filled = true;\r\n                }\r\n            }\r\n            deleteOrders(orders, marketOrders);\r\n        }\r\n        if(marketOrders.length == 0 && amount > 0 && orders.length == 0 ){\r\n           marketOrderBook[ticker][uint256(side)].push(marketOrder(_marketIds.current(),msg.sender,side,ticker,amount, false));\r\n           _marketIds.increment();\r\n        }\r\n    }\r\n\r\n   function deleteOrders(Order[] storage orders, marketOrder[] storage marketOrders) private {\r\n\r\n    if (orders[0].filled) {\r\n            \r\n        for (uint j = 0; j < orders.length-1; j++){\r\n            orders[j] = orders[j+1];\r\n        }    \r\n        orders.pop();\r\n    }\r\n\r\n    if(marketOrders.length > 0 && marketOrders[0].filled){\r\n       for (uint j = 0; j < marketOrders.length-1; j++){\r\n            marketOrders[j] = marketOrders[j+1];\r\n        }    \r\n            marketOrders.pop();\r\n    }\r\n   }\r\n   \r\n   function settleTrade(Order memory temp, uint amt, address seller, address buyer,bytes32 _ticker) private{\r\n        uint cost = temp.price * amt;\r\n        balances[seller][\"ETH\"] += cost; \r\n        balances[seller][_ticker] -= amt; \r\n        balances[buyer][\"ETH\"] -= cost; \r\n        balances[buyer][_ticker] += amt; \r\n   }\r\n  \r\n}",
  "sourcePath": "C:\\Users\\User\\Documents\\Narfex-DEX2\\contracts\\Narfex-Dex.sol",
  "compiler": {
    "name": "solc",
    "version": "0.8.11+commit.d7f03943.Emscripten.clang"
  },
  "schemaVersion": "3.4.4",
  "updatedAt": "2022-04-01T14:30:57.084Z",
  "devdoc": {
    "kind": "dev",
    "methods": {
      "owner()": {
        "details": "Returns the address of the current owner."
      },
      "renounceOwnership()": {
        "details": "Leaves the contract without owner. It will not be possible to call `onlyOwner` functions anymore. Can only be called by the current owner. NOTE: Renouncing ownership will leave the contract without an owner, thereby removing any functionality that is only available to the owner."
      },
      "transferOwnership(address)": {
        "details": "Transfers ownership of the contract to a new account (`newOwner`). Can only be called by the current owner."
      }
    },
    "version": 1
  },
  "userdoc": {
    "kind": "user",
    "methods": {},
    "version": 1
  }
}